:100000000C94CD000C94F5000C94F5000C94F500C4
:100010000C94F5000C94F5000C94F5000C94F5008C
:100020000C94F5000C94F5000C94D4030C94430448
:100030000C94F5000C94F5000C94F5000C94F5006C
:100040000C94F5000C94F5000C94F5000C94F5005C
:100050000C94F5000C94F5000C94F5000C947506C6
:100060000C94F5000C94F5000C94F5000C94F5003C
:100070000C94F5000C94F5000C94F5000C94F5002C
:100080000C94F5000C94F5000C94F5000C94F5001C
:100090000C94F5000C94F5000C94F5000C94F5000C
:1000A0000C94F5000C94F5000C94F5000000000091
:1000B000240027002A002D003000080B0002020255
:1000C00000000904000001020200000524001001E4
:1000D0000524010101042402060524060001070588
:1000E000810310004009040100020A000000070516
:1000F00002024000000705830240000004030904D7
:1001000012010002EF020140412337800001010289
:10011000030141726475696E6F204C4C430041725B
:100120006475696E6F204D6963726F000000000096
:10013000250028002B002E003100040404040403D1
:100140000405020202020403020202020606060677
:10015000060604040202020404040802011040809E
:10016000401020408040800802040180402010029E
:1001700001108010204040200000000200090F0004
:1001800000030401000C000000000000000000005B
:100190000000000000000000BF0611241FBECFEFCA
:1001A000DAE0DEBFCDBF11E0A0E0B1E0E8E7FFE0BC
:1001B00002C005900D92A632B107D9F721E0A6E260
:1001C000B1E001C01D92A739B207E1F710E0CDEC14
:1001D000D0E004C02197FE010E94B407CC3CD107B7
:1001E000C9F70E94D4060C94BA070C940000E5E805
:1001F000F1E02491E6E6F1E03491E7E4F1E0949156
:10020000992309F430C02223E9F021502F30D0F493
:10021000E22FF0E0E25FFE4F0C94B4073C01400196
:100220001D0134013801220122012201430149014B
:100230004D015101570122015B01209180002F7770
:1002400020938000E92FF0E0EE0FFF1FE45DFE4FEA
:10025000A591B4919FB7F894EC91811132C030957B
:100260003E233C939FBF0895209180002F7DE8CFCF
:1002700020918000277FE4CF24B52F7724BDE2CFE3
:1002800024B52F7DFBCF209190002F7720939000F5
:10029000D9CF209190002F7DF9CF20919000277F1A
:1002A000F5CF2091C0002F772093C000CBCF2091B5
:1002B000C0002F7DF9CF2091C200277F2093C2007C
:1002C000C1CF3E2BCECFFC0180919601882311F146
:1002D0003FB7F89482E08093E9002091F200822FEA
:1002E00090E01816190614F481E090E0882339F0A4
:1002F000289A44E6409395014091F10040832223DF
:1003000039F02091F200211103C02BE62093E80080
:100310003FBF08958FEF9FEF08952FB7F89483E0C4
:100320008093E9009091E800892F807295FF04C0C6
:100330009091F20080E4891B2FBF089580918D0178
:1003400081110DC082E08093890184E080938A014D
:1003500010928C0110928B0181E080938D0189E8CD
:1003600091E00895CF93DF931F92CDB7DEB76983F5
:10037000DC01ED91FC910280F381E02D41E050E041
:10038000BE016F5F7F4F09950F90DF91CF91089568
:1003900083E08093E9008091F200882319F08AE3DA
:1003A0008093E80008950E948D0190E00895CF9316
:1003B000DF931F92CDB7DEB7FC018485958597FD4D
:1003C00008C02FEF3FEF358724870F90DF91CF9143
:1003D0000895CE0101960E946301019719F4898165
:1003E00090E0F3CF8FEF9FEFF0CF0F931F93CF935A
:1003F000DF931F92CDB7DEB78C01FC018485958514
:1004000097FF0BC0CE0101960E946301019771F422
:10041000898190E0F80195878487F8018485958526
:100420000F90DF91CF911F910F9108958FEF9FEF64
:10043000F1CFFC018485958597FD0BC09FB7F8949B
:1004400082E08093E9008091F2009FBF90E00196E6
:1004500008959FB7F89482E08093E9008091F200BC
:100460009FBF90E008954091330150913401209155
:1004700031013091320142175307B4F49091E800F2
:100480009570E1F39091E80092FD19C08093F1001E
:10049000809133019091340101968F739927892BB4
:1004A00019F48EEF8093E80080913301909134012C
:1004B0000196909334018093330181E0089580E0A8
:1004C0000895EF92FF920F931F93CF93DF93F82E2F
:1004D000192FE62E042F81E0860F880F0E94330229
:1004E00083E00E943302CF2DD12FEC0EFD2EF11CA4
:1004F000CE15DF05B9F007FF13C0FE0184910E94FD
:100500003302182F80E00E9433028123219681114B
:10051000EFCFDF91CF911F910F91FF90EF90089552
:100520008881EDCF81E0F5CFDF92EF92FF920F93BC
:100530001F93CF93DF93D82E8A01EB017B01E40E4A
:10054000F51ECE15DF0559F0D7FE12C0FE018491CD
:100550000E94330221968111F4CF0FEF1FEFC801E3
:10056000DF91CF911F910F91FF90EF90DF90089551
:100570008881EECF0F931F93CF93DF931F92CDB758
:10058000DEB782E0898342E450E06AEB70E080E805
:100590000E9494020E949E01DC0112960D911C9112
:1005A0000115110589F0D801ED91FC910280F381CC
:1005B000E02DBE016F5F7F4FC801099597FD04C014
:1005C000F80100851185ECCF89810F90DF91CF91E3
:1005D0001F910F910895615030F02091F100FC01BE
:1005E00020830196F8CF289A84E680939501089598
:1005F0003FB7F89480912D0190912E01A0912F0189
:10060000B091300126B5A89B05C02F3F19F0019687
:10061000A11DB11D3FBFBA2FA92F982F8827BC015C
:10062000CD01620F711D811D911D42E0660F771F84
:10063000881F991F4A95D1F708958F929F92AF9284
:10064000BF92CF92DF92EF92FF924B015C010E942A
:10065000F8026B017C010E94F8026C197D098E0979
:100660009F09683E734081059105A8F321E0821A35
:100670009108A108B10888EEC80E83E0D81EE11CDD
:10068000F11C81149104A104B10429F7FF90EF90AB
:10069000DF90CF90BF90AF909F908F9008958F92F2
:1006A0009F92AF92BF92CF92DF92EF92FF920F9301
:1006B0001F93CF93DF936C017B018A0180910B0123
:1006C000882309F45CC080919601882309F457C0FF
:1006D0008091380180FF05C08091E00082608093A6
:1006E000E000E801B12C8AEFA82E93E0892E2AE3DE
:1006F000922E209711F4BB20D9F10E948D01811117
:100700000AC0AA94AA20D9F161E070E080E090E0EC
:100710000E941D03EECF8C171D0611F00CF08C2FDC
:100720009FB7F8948092E9002091E80025FD02C06F
:100730009FBFDFCF282F30E0C21BD30BF7018150C2
:1007400020F041914093F100FACFE20EF31EBB205E
:1007500021F09092E800B12CEBCF8091E80085FD6C
:10076000E7CF9092E800BB24B394209709F3F3CF2E
:100770005D9A84E680933701101611063CF081E003
:1007800090E0F6019383828310E000E0C801DF91DE
:10079000CF911F910F91FF90EF90DF90CF90BF907E
:1007A000AF909F908F9008951F920F920FB60F9267
:1007B00011248F939F938091E1009091E100937FAA
:1007C0009093E10083FF0FC01092E90091E09093B5
:1007D000EB001092EC0092E39093ED0010929601E2
:1007E00098E09093F00082FF22C093E09093E9009C
:1007F0009091F200992319F09AE39093E800909178
:100800003701992341F0909137019150909337012E
:10081000911101C05D9890919501992341F09091BB
:100820009501915090939501911101C0289884FFF2
:1008300018C08091E2008E7E81608093E2008091FA
:10084000E1008F7E8093E100809138018E7E80618F
:10085000809338019F918F910F900FBE0F901F9042
:10086000189580FFF7CF8091E2008E7E80618093A3
:10087000E2008091E1008E7E8093E100809138015A
:100880008E7E8160E5CF1F920F920FB60F921124DA
:10089000CF92DF92EF92FF920F931F932F933F938C
:1008A0004F935F936F937F938F939F93AF93BF9378
:1008B000EF93FF93CF93DF93CDB7DEB76C97DEBF97
:1008C000CDBF1092E9008091E80083FF25C068E069
:1008D000CE0145960E94EB0282EF8093E8008D895D
:1008E00087FF39C09091E80090FFFCCF982F907659
:1008F00009F034C19E894F89588D2F89F88C911148
:1009000031C0803861F5809136018093F1001092FA
:10091000F1008EEF8093E8006C960FB6F894DEBF7E
:100920000FBECDBFDF91CF91FF91EF91BF91AF91FE
:100930009F918F917F916F915F914F913F912F91F7
:100940001F910F91FF90EF90DF90CF900F900FBE0F
:100950000F901F9018959EEF9093E800C7CF1092CC
:10096000F100D5CF913059F48111D3CF41305105E9
:1009700081F6809136018D7F80933601CACF933006
:1009800049F48111C6CF4130510519F680913601E5
:100990008260F2CF953041F48091E80080FFFCCF77
:1009A00020682093E300B5CF963009F0A9C00B8DE5
:1009B0001C8D22E01092E900109234011092330154
:1009C000F2122EC010923201109231010E94BA022E
:1009D0001F8299E09983FA8291E09E8390EA98873A
:1009E0009AEF99872091330130913401275F3F4F6F
:1009F0003C832B838D831092E90010923401109276
:100A00003301109332010093310149E050E0BE01FF
:100A10006F5F7F4F80E00E9494020E94BA0279CFFC
:100A200010933201009331010E949E01DC01129665
:100A30000D911C910115110509F451C1D801ED91D9
:100A4000FC910480F581E02DBE016B5E7F4FC801F3
:100A50000995009709F03EC1F80100851185EACF9C
:100A6000F3E0FF120EC08F89882309F440C0823062
:100A700061F440E86DE08EE191E00E946102811135
:100A800048CF81E28093EB0047CF813029F440E8E2
:100A90006BE082E191E0F1CF833099F70E949E01F3
:100AA000DC011296ED90FC908E010F5F1F4F6801E4
:100AB000E114F10479F0D701ED91FC910680F78102
:100AC000E02DB801C7010995080F111DF701E08459
:100AD000F184EECFD8011C92F60101900020E9F7D5
:100AE0003197BF016C197D0940E0C601C6CF6CEF9C
:100AF00070E0FB01449150E080E80E94940209CF2D
:100B0000973009F4BECF983021F481E08093F10052
:100B100000CF993009F0FDCE837009F0B2CFEDE03F
:100B2000F1E081E031E096E32191222371F080939E
:100B3000E9003093EB00DF0111972C912093EC003A
:100B40009093ED008F5F873079F78EE78093EA000E
:100B50001092EA008F8980939601DBCE8B8D9C8D5D
:100B60001092E900109234011092330190933201F7
:100B700080933101898D811192C08E899D89913A2E
:100B800049F4813209F07DCF47E050E064E071E044
:100B900080E0B3CF913209F074CF833269F48F894A
:100BA000988DB0E0A0E08093000190930101A093A4
:100BB0000201B0930301ADCE803269F48091E80068
:100BC00082FFFCCF67E084E091E00E94EB028BEFB4
:100BD0008093E8009ECE823209F09BCE8F8980936D
:100BE0000B01EEEFFFE7859194918B3F9C4D51F106
:100BF000E0E0F8E08091040190910501A0910601E8
:100C0000B0910701803B9440A105B105F1F48091BA
:100C10000B0180FD1AC0EE3F8AE0F80789F587E7EF
:100C200097E791838083809160008093350188E10C
:100C30009BE00FB6F894A895809360000FBE909348
:100C4000600067CEEEEFFAE0D5CF808191818737E3
:100C5000974709F05ECEA8958091600088618093E7
:100C600060008091350180936000EE3F2AE0F2073A
:100C700089F08091FE0A9091FF0A9183808349CE8A
:100C8000808191818737980751F29093FF0A809372
:100C9000FE0AC5CF1092FF0A1092FE0A3ACE0E94B9
:100CA0009E01DC0112960D911C910115110509F4AC
:100CB000E8CED801ED91FC910190F081E02DBE01CC
:100CC0006B5E7F4FC8010995811123CEF801008525
:100CD0001185EBCF181619060CF41BCED2CEF1E01D
:100CE000FF12BECE60E071E004CF1F920F920FB6EC
:100CF0000F9211242F933F938F939F93AF93BF93A2
:100D00008091290190912A01A0912B01B0912C0191
:100D10003091280123E0230F2D3758F50196A11DAE
:100D2000B11D209328018093290190932A01A0935B
:100D30002B01B0932C0180912D0190912E01A09157
:100D40002F01B09130010196A11DB11D80932D019D
:100D500090932E01A0932F01B0933001BF91AF91DA
:100D60009F918F913F912F910F900FBE0F901F90E9
:100D7000189526E8230F0296A11DB11DD2CFE9E3F5
:100D8000F1E01382128288EE93E0A0E0B0E0848369
:100D90009583A683B78387E191E0918380838FEF6A
:100DA0009FEF958784870895789484B5826084BD89
:100DB00084B5816084BD85B5826085BD85B581605F
:100DC00085BD80916E00816080936E0010928100DD
:100DD0008091810082608093810080918100816098
:100DE0008093810080918000816080938000809159
:100DF0009100826080939100809191008160809346
:100E00009100809190008160809390008091C1005A
:100E100084608093C1008091C10082608093C10092
:100E20008091C10081608093C1008091C300816086
:100E30008093C3008091C00082608093C000809145
:100E4000C20081608093C20080917A0084608093A8
:100E50007A0080917A00826080937A0080917A0093
:100E6000816080937A0080917A00806880937A0014
:100E70001092960110923601109238018091D7009D
:100E800081608093D70080EA8093D80089B5806123
:100E900089BD89B5826089BD09B400FEFDCF61E0DE
:100EA00070E080E090E00E941D038091D8008F7C6C
:100EB00080618093D8008091E000807F8093E00083
:100EC0008091E1008E7E8093E1008DE08093E200CE
:100ED000559A209A5D982898E6E6F1E02491E7E497
:100EE000F1E08491882399F090E0880F991FFC012C
:100EF000E455FF4FA591B491FC01E45DFE4F85914F
:100F000094918FB7F894EC91E22BEC938FBF00E0B3
:100F100010E0C0912601D0912701CF30D10561F4B6
:100F200068EE73E080E090E00E941D03011511055A
:100F300081F30E940000EDCF81E00E94F70068EE8F
:100F400073E080E090E00E941D0380E00E94F700C3
:100F500068EE73E080E090E00E941D032196D0933C
:100F60002701C0932601E2CFEE0FFF1F0590F491F9
:080F7000E02D0994F894FFCF75
:100F7800FFFFFFFF00E100000000000000C18081CA
:100F880000000000000000B2014F03D301C801199E
:060F980002D701F5010083
:00000001FF
